:020000020000FC
:0200000033C00B
:0200040057C0E3
:0200340048C0C2
:10006800803019F508E00EBF0FEF0DBF3B9A3C9AA0
:100078003D9A389A439A52985A9A01E00DBB02E089
:100088000093690001E000936F0002EC0093850083
:1000980007EF0093840000270093800005E0009399
:1000A800810028E018E078948395FFCF189906C05E
:1000B800439904C004E000938100289A189502EC43
:1000C8000093850007EF009384002A9559F428E0EF
:1000D800110F103439F418E0189B04C005E00093A0
:0800E8008100289818B9189551
:00000001FF
